01016120220521125637
5800102021102143AE829932             000000000000000000000000022052300013009448014700100000001220494700100006000005686XTECHAG   60000056860001220428003310030010/2022-05-21/100020866
5800102021101234A2C9B32D             000000000000000000000000022052300012819605764700100000000336994700100006000020715XTECHAG   60000207150001220422003310030010/2022-05-21/100020867
58001020211021EAA83CE02F             000000000000000000000000022052300011985562674700100000001043924700100006000022173XTECHAG   60000221730001220428003310030010/2022-05-21/100020868
5800102021102925D3701BCC             000000000000000000000000022052300013813814974700100000000614484700100006000026152XTECHAG   60000261520001220423003310030010/2022-05-21/100020869
580010202110154177A850C2             000000000000000000000000022052300013878109774700100000004153424700100006000032322XTECHAG   60000323220001220422003310030010/2022-05-21/100020870
580010202110159AADBBC30C             000000000000000000000000022052300014027390184700100000001484124700100006000042085XTECHAG   60000420850001220422003310030010/2022-05-21/100020871
5800102021101518661CEDA3             000000000000000000000000022052300012934388534700100000000160034700100006000004477XTECHAG   60000044770001220422003310030010/2022-05-21/100020872
5800102021101599EB89093D             000000000000000000000000022052300014016007174700100000000612554700100006000028783XTECHAG   60000287830001220422003310030010/2022-05-21/100020873
58001020211021066566D0E8             000000000000000000000000022052300012333642174700100000001227344700100006000075269XTECHAG   60000752690001220428003310030010/2022-05-21/100020874
58001020211015DD5EC54947             000000000000000000000000022052300013280970544700100000000333584700100006000085248XTECHAG   60000852480001220422003310030010/2022-05-21/100020875
58001020211015B4034C1C34             000000000000000000000000022052300014742166154700100000000104054700100006000113454XTECHAG   60001134540001220422003310030010/2022-05-21/100020876
580010202110153F2A38D5B4             000000000000000000000000022052300012164297214700100000000661624700100006000126394XTECHAG   60001263940001220422003310030010/2022-05-21/100020877
58001020211021E670C8942E             000000000000000000000000022052300012319291604700100000000248084700100006000101278XTECHAG   60001012780001220428003310030010/2022-05-21/100020878
58001020211015036E92F539             000000000000000000000000022052300011900308194700100000000210744700100006000116488XTECHAG   60001164880001220422003310030010/2022-05-21/100020879
58001020210921C0CF3ED906             000000000000000000000000022052300011653608434700100000000239954700100006000121562XTECHAG   60001215620001220421003310030010/2022-05-21/100020880
58001020211012208F6E2839             000000000000000000000000022052300013873354384700100000000212534700100006000125118XTECHAG   60001251180001220423003310030010/2022-05-21/100020881
580010202110189E313A1EA3             000000000000000000000000022052300012727790154700100000000034184700100006000134559XTECHAG   60001345590001220422003310030010/2022-05-21/100020882
580010202110210D83DF1F82             000000000000000000000000022052300012342239784700100000000610044700100006000016874XTECHAG   60000168740001220523003310010010/2022-05-21/100020883
58001020211008D0FB112135             000000000000000000000000022052300011484549594700100000007143164700100006000033914XTECHAG   60000339140001220523003302010010/2022-05-21/100020884
58001020211015025A5DF4B9             000000000000000000000000022052300013584534444700100000000376644700100006000011449XTECHAG   60000114490001220422003310030010/2022-05-21/100020885
5800102021101825EFDD4AB9             000000000000000000000000022052300012339328514700100000000203254700100006000018265XTECHAG   60000182650001220422003310030010/2022-05-21/100020886
580010202110218E6CB7B582             000000000000000000000000022052300013085252124700100000000533084700100006000021096XTECHAG   60000210960001220428003310030010/2022-05-21/100020887
58001020211021882A65304F             000000000000000000000000022052300013201283174700100000000608844700100006000021886XTECHAG   60000218860001220428003310030010/2022-05-21/100020888
58001020211015835B102DD8             000000000000000000000000022052300012418944244700100000000233774700100006000029542XTECHAG   60000295420001220422003310030010/2022-05-21/100020889
580010202110214AF538D40C             000000000000000000000000022052300012265095744700100000000331834700100006000032772XTECHAG   60000327720001220428003310030010/2022-05-21/100020890
58001020211021B7DB04D222             000000000000000000000000022052300011385743314700100000001176184700100006000014243XTECHAG   60000142430001220428003310030010/2022-05-21/100020891
580010202110213E9587CB83             000000000000000000000000022052300011389642104700100000000487344700100006000035666XTECHAG   60000356660001220428003310030010/2022-05-21/100020892
58001020211015D3E2827B5D             000000000000000000000000022052300013243526024700100000000154444700100006000041690XTECHAG   60000416900001220422003310030010/2022-05-21/100020893
58001020211021137663DB1A             000000000000000000000000022052300011243306724700100000000926764700100006000053222XTECHAG   60000532220001220428003310030010/2022-05-21/100020894
58001020211015A0EBFF2B1E             000000000000000000000000022052300013562586524700100000000403314700100006000057392XTECHAG   60000573920001220422003310030010/2022-05-21/100020895
580010202110216749A59A8A             000000000000000000000000022052300013291730134700100000000444454700100006000087275XTECHAG   60000872750001220523003310010010/2022-05-21/100020896
58001020211021B7DB04D222             000000000000000000000000022052300011385743314700100000001150054700100006000014243XTECHAG   60000142430001220523003310010010/2022-05-21/100020897
580010202110218E6CB7B582             000000000000000000000000022052300013085252124700100000000522274700100006000021096XTECHAG   60000210960001220523003310010010/2022-05-21/100020898
58001020211021C8FCB4BF04             000000000000000000000000022052300011917710574700100000000705674700100006000021835XTECHAG   60000218350001220523003310010010/2022-05-21/100020899
5800102021102143AE829932             000000000000000000000000022052300013009448014700100000001194424700100006000005686XTECHAG   60000056860001220523003310010010/2022-05-21/100020900
58001020211021309AB2E681             000000000000000000000000022052300012374823034700100000000523244700100006000020812XTECHAG   60000208120001220523003310010010/2022-05-21/100020901
58001020211021882A65304F             000000000000000000000000022052300013201283174700100000000596574700100006000021886XTECHAG   60000218860001220523003310010010/2022-05-21/100020902
58001020211021EAA83CE02F             000000000000000000000000022052300011985562674700100000001019394700100006000022173XTECHAG   60000221730001220523003310010010/2022-05-21/100020903
58001020211021D6B100C4DF             000000000000000000000000022052300011995815324700100000000275624700100006000027124XTECHAG   60000271240001220523003310010010/2022-05-21/100020904
580010202110214AF538D40C             000000000000000000000000022052300012265095744700100000000325314700100006000032772XTECHAG   60000327720001220523003310010010/2022-05-21/100020905
58001020211021BE0D5FF23F             000000000000000000000000022052300012653723634700100000000276094700100006000048784XTECHAG   60000487840001220428003310030010/2022-05-21/100020906
5800102021101509A5CFF238             000000000000000000000000022052300014324710804700100000000188264700100006000060865XTECHAG   60000608650001220422003310030010/2022-05-21/100020907
580010202110159A570E3D6B             000000000000000000000000022052300011339105704700100000000431844700100006000101154XTECHAG   60001011540001220421003310030010/2022-05-21/100020908
580010202110153578261D87             000000000000000000000000022052300012810233784700100000001177814700100006000122917XTECHAG   60001229170001220422003310030010/2022-05-21/100020909
58001020211021628BA37CB5             000000000000000000000000022052300012455520054700100000000497194700100006000133005XTECHAG   60001330050001220428003310030010/2022-05-21/100020910
580010202110183499235C31             000000000000000000000000022052300012260995624700100000000454354700100006000160320XTECHAG   60001603200001220422003310030010/2022-05-21/100020911
5800102021101597D4811463             000000000000000000000000022052300014953473604700100000000152434700100006000178351XTECHAG   60001783510001220422003310030010/2022-05-21/100020912
58001020211015BBE278148C             000000000000000000000000022052300013477951604700100000000104464700100006000205634XTECHAG   60002056340001220422003310030010/2022-05-21/100020913
58001020211021B6AC5203C3             000000000000000000000000022052300012885536664700100000000838594700100006000206037XTECHAG   60002060370001220428003310030010/2022-05-21/100020914
58001020211018104F17E895             000000000000000000000000022052300013628850274700100000000184484700100006000137531XTECHAG   60001375310001220425003310030010/2022-05-21/100020915
580010202109216B8D2D6DAF             000000000000000000000000022052300011608608644700100000000389784700100006000140281XTECHAG   60001402810001220422003310030010/2022-05-21/100020916
5800102021101515CF763B9F             000000000000000000000000022052300014346833364700100000000176814700100006000154045XTECHAG   60001540450001220422003310030010/2022-05-21/100020917
58001020211021EB38F95584             000000000000000000000000022052300012894329004700100000000438274700100006000176480XTECHAG   60001764800001220428003310030010/2022-05-21/100020918
58001020211015898A49796E             000000000000000000000000022052300014951209354700100000000254684700100006000185668XTECHAG   60001856680001220422003310030010/2022-05-21/100020919
5800102021102144742F285E             000000000000000000000000022052300011604143684700100000001022464700100006000197240XTECHAG   60001972400001220428003310030010/2022-05-21/100020920
58001020211015D17A118DEC             000000000000000000000000022052300011992939364700100000005523744700100006000046587XTECHAG   60000465870001220523003302010010/2022-05-21/100020921
580010202110212C2E67209C             000000000000000000000000022052300012333909434700100000000294134700100006000051130XTECHAG   60000511300001220523003310010010/2022-05-21/100020922
58001020211021137663DB1A             000000000000000000000000022052300011243306724700100000000907164700100006000053222XTECHAG   60000532220001220523003310010010/2022-05-21/100020923
580010202110219A91472616             000000000000000000000000022052300011652319974700100000000583864700100006000060091XTECHAG   60000600910001220523003310010010/2022-05-21/100020924
580010202110218D30BFCE3B             000000000000000000000000022052300011324274854700100000000971604700100006000035259XTECHAG   60000352590001220428003310030010/2022-05-21/100020925
58001020211008F3857CE376             000000000000000000000000022052300013740971504700100000007957644700100006000044363XTECHAG   60000443630001220523003302010010/2022-05-21/100020926
5800102021101298F461901A             000000000000000000000000022052300011476985014700100000000465834700100006000045939XTECHAG   60000459390001220422003310030010/2022-05-21/100020927
580010202110086D3418B17F             000000000000000000000000022052300013282735024700100000008010984700100006000046072XTECHAG   60000460720001220523003302010010/2022-05-21/100020928
58001020211021F8C291E410             000000000000000000000000022052300013103524514700100000000430554700100006000064755XTECHAG   60000647550001220428003310030010/2022-05-21/100020929
58001020211008923390D9EA             000000000000000000000000022052300012451640134700100000008314844700100006000087925XTECHAG   60000879250001220523003302010010/2022-05-21/100020930
58001020211021A996EE4BAA             000000000000000000000000022052300012968938374700100000000541374700100006000089073XTECHAG   60000890730001220523003310010010/2022-05-21/100020931
580010202110159755B1A690             000000000000000000000000022052300013472806324700100000005169314700100006000104110XTECHAG   60001041100001220523003302010010/2022-05-21/100020932
58001020211015B4588FD46A             000000000000000000000000022052300013058895314700100000004570684700100006000109201XTECHAG   60001092010001220523003302010010/2022-05-21/100020933
58001020211008E6E7DB2EFA             000000000000000000000000022052300013169898424700100000006421974700100006000040244XTECHAG   60000402440001220523003302010010/2022-05-21/100020934
58001020211008DBF685220B             000000000000000000000000022052300012757368644700100000011125194700100006000043499XTECHAG   60000434990001220523003302010010/2022-05-21/100020935
58001020211008C54F4F77A9             000000000000000000000000022052300011194868214700100000012582824700100006000046935XTECHAG   60000469350001220523003302010010/2022-05-21/100020936
58001020211008D1E7A6C5AC             000000000000000000000000022052300012626899864700100000010674514700100006000047060XTECHAG   60000470600001220523003302010010/2022-05-21/100020937
58001020211021BE0D5FF23F             000000000000000000000000022052300012653723634700100000000272254700100006000048784XTECHAG   60000487840001220523003310010010/2022-05-21/100020938
580010202110218D30BFCE3B             000000000000000000000000022052300011324274854700100000000950294700100006000035259XTECHAG   60000352590001220523003310010010/2022-05-21/100020939
580010202110213E9587CB83             000000000000000000000000022052300011389642104700100000000477154700100006000035666XTECHAG   60000356660001220523003310010010/2022-05-21/100020940
58001020211015D661231520             000000000000000000000000022052300012216123504700100000011906884700100006000035798XTECHAG   60000357980001220523003302010010/2022-05-21/100020941
580010202110083CBE694993             000000000000000000000000022052300014933465534700100000000145324700100006000040341XTECHAG   60000403410001220523003310010010/2022-05-21/100020942
580010202110080FBAC87955             000000000000000000000000022052300011130802624700100000012481914700100006000043758XTECHAG   60000437580001220523003302010010/2022-05-21/100020943
5800102021102119EFD22C8A             000000000000000000000000022052300012215904544700100000000556344700100006000141717XTECHAG   60001417170001220428003310030010/2022-05-21/100020944
58001020211012AD6C482C36             000000000000000000000000022052300013544100154700100000000525694700100006000149947XTECHAG   60001499470001220422003310030010/2022-05-21/100020945
580010202110152FCD67FFAA             000000000000000000000000022052300013655819324700100000000185684700100006000165284XTECHAG   60001652840001220422003310030010/2022-05-21/100020946
5800102021102180943F930C             000000000000000000000000022052300012814851264700100000000756264700100006000179285XTECHAG   60001792850001220428003310030010/2022-05-21/100020947
5800102021102141F0C75BBB             000000000000000000000000022052300012310297124700100000000691464700100006000179595XTECHAG   60001795950001220428003310030010/2022-05-21/100020948
5800102021102195B0DE2519             000000000000000000000000022052300012880770314700100000000745314700100006000183517XTECHAG   60001835170001220428003310030010/2022-05-21/100020949
580010202110214944FA4BCF             000000000000000000000000022052300011407269414700100000000861584700100006000208455XTECHAG   60002084550001220428003310030010/2022-05-21/100020950
580010202110218B74C45350             000000000000000000000000022052300013453897264700100000000592234700100006000268423XTECHAG   60002684230001220428003310030010/2022-05-21/100020951
58001020211015F2A0EF8820             000000000000000000000000022052300011110229904700100000001588544700100006000270983XTECHAG   60002709830001220422003310030010/2022-05-21/100020952
58001020211021E210FB024B             000000000000000000000000022052300011993109384700100000000634614700100006000272315XTECHAG   60002723150001220428003310030010/2022-05-21/100020953
580010202110154E0F7CD596             000000000000000000000000022052300012672354444700100000000105554700100006000272897XTECHAG   60002728970001220422003310030010/2022-05-21/100020954
58001020211015297DC36A97             000000000000000000000000022052300013026823594700100000016411864700100006000294335XTECHAG   60002943350001220523003302010010/2022-05-21/100020955
58001020211021066566D0E8             000000000000000000000000022052300012333642174700100000001187214700100006000075269XTECHAG   60000752690001220523003310010010/2022-05-21/100020956
58001020211008145B0C493D             000000000000000000000000022052300012238513954700100000009458964700100006000077776XTECHAG   60000777760001220523003302010010/2022-05-21/100020957
58001020211008E18F491D36             000000000000000000000000022052300011570033524700100000001165824700100006000078683XTECHAG   60000786830001220523003302010010/2022-05-21/100020958
58001020211015F5B820DD1B             000000000000000000000000022052300011794963194700100000000453194700100006000082834XTECHAG   60000828340001220523003310010010/2022-05-21/100020959
580010202110082FCABD7BBB             000000000000000000000000022052300012203401364700100000002596434700100006000084209XTECHAG   60000842090001220523003302010010/2022-05-21/100020960
58001020211008F1F8567C94             000000000000000000000000022052300012216732444700100000004415604700100006000088239XTECHAG   60000882390001220523003302010010/2022-05-21/100020961
58001020211008A1C098B8F9             000000000000000000000000022052300013613118334700100000007508124700100006000090616XTECHAG   60000906160001220523003302010010/2022-05-21/100020962
58001020211021860C08400F             000000000000000000000000022052300013158813634700100000000329484700100006000219678XTECHAG   60002196780001220428003310030010/2022-05-21/100020963
58001020211015BC3E9503C4             000000000000000000000000022052300011764916344700100000000232194700100006000225384XTECHAG   60002253840001220422003310030010/2022-05-21/100020964
580010202110150AF6967B5D             000000000000000000000000022052300012676939224700100000005682714700100006000227557XTECHAG   60002275570001220523003302010010/2022-05-21/100020965
58001020211021528415EB6E             000000000000000000000000022052300012658210364700100000000193844700100006000234049XTECHAG   60002340490001220523003310010010/2022-05-21/100020966
58001020211021EA24590D32             000000000000000000000000022052300011335605964700100000001796754700100006000238303XTECHAG   60002383030001220428003310030010/2022-05-21/100020967
58001020211021EBF949F7E9             000000000000000000000000022052300011413653304700100000000529174700100006000068637XTECHAG   60000686370001220428003310030010/2022-05-21/100020968
5800102021101845062533EE             000000000000000000000000022052300012891923064700100000000311034700100006000072936XTECHAG   60000729360001220523003310010010/2022-05-21/100020969
580010202110082D44D88F88             000000000000000000000000022052300014184347184700100000003579094700100006000087046XTECHAG   60000870460001220523003302010010/2022-05-21/100020970
58001020211021F5EE4B000B             000000000000000000000000022052300011573689034700100000000452034700100006000089170XTECHAG   60000891700001220428003310030010/2022-05-21/100020971
580010202110213A99D822B8             000000000000000000000000022052300012844553684700100000000604864700100006000096304XTECHAG   60000963040001220428003310030010/2022-05-21/100020972
5800102021102185FAEFD536             000000000000000000000000022052300013149722094700100000000632864700100006000051769XTECHAG   60000517690001220428003310030010/2022-05-21/100020973
580010202110218D341CF7C2             000000000000000000000000022052300011416080554700100000001003194700100006000052315XTECHAG   60000523150001220428003310030010/2022-05-21/100020974
580010202110218D341CF7C2             000000000000000000000000022052300011416080554700100000000979714700100006000052315XTECHAG   60000523150001220523003310010010/2022-05-21/100020975
58001020211008F4891B4FF5             000000000000000000000000022052300013600641744700100000014266864700100006000052463XTECHAG   60000524630001220523003302010010/2022-05-21/100020976
580010202110219FEF1B2E7F             000000000000000000000000022052300011228446014700100000002041994700100006000053532XTECHAG   60000535320001220523003310010010/2022-05-21/100020977
580010202110219FEF1B2E7F             000000000000000000000000022052300011228446014700100000002091234700100006000053532XTECHAG   60000535320001220428003310030010/2022-05-21/100020978
5800102021102185FAEFD536             000000000000000000000000022052300013149722094700100000000613184700100006000051769XTECHAG   60000517690001220523003310010010/2022-05-21/100020979
58001020211021F8C291E410             000000000000000000000000022052300013103524514700100000000422274700100006000064755XTECHAG   60000647550001220523003310010010/2022-05-21/100020980
58001020211021EBF949F7E9             000000000000000000000000022052300011413653304700100000000515754700100006000068637XTECHAG   60000686370001220523003310010010/2022-05-21/100020981
58001020211021A0D05F7661             000000000000000000000000022052300011467183394700100000000336494700100006000071603XTECHAG   60000716030001220523003310010010/2022-05-21/100020982
58001020211008FCEF4212CA             000000000000000000000000022052300011513382474700100000007358924700100006000084160XTECHAG   60000841600001220523003302010010/2022-05-21/100020983
58001020210921907B1E035B             000000000000000000000000022052300011863266014700100000000134854700100006000114965XTECHAG   60001149650001220422003310030010/2022-05-21/100020984
580010202110082ECEBC6E08             000000000000000000000000022052300014904283544700100000008265344700100006000118022XTECHAG   60001180220001220523003302010010/2022-05-21/100020985
58001020211021482696D834             000000000000000000000000022052300012463440314700100000000213324700100006000188950XTECHAG   60001889500001220428003310030010/2022-05-21/100020986
58001020211015D4630BF2D2             000000000000000000000000022052300012894660904700100000000190524700100006000194276XTECHAG   60001942760001220422003310030010/2022-05-21/100020987
580010202110212731FF9135             000000000000000000000000022052300012928738154700100000000596594700100006000199693XTECHAG   60001996930001220428003310030010/2022-05-21/100020988
58001020211021D22B499051             000000000000000000000000022052300012107157144700100000000284194700100006000211464XTECHAG   60002114640001220428003310030010/2022-05-21/100020989
58001020211018F56B281CBB             000000000000000000000000022052300013065768204700100000000295294700100006000214803XTECHAG   60002148030001220422003310030010/2022-05-21/100020990
5800102021102167795BAE18             000000000000000000000000022052300014852157124700100000000335294700100006000215958XTECHAG   60002159580001220428003310030010/2022-05-21/100020991
580010202110152B3E083B92             000000000000000000000000022052300014958056874700100000000159424700100006000219716XTECHAG   60002197160001220422003310030010/2022-05-21/100020992
5800102021101585FB98485B             000000000000000000000000022052300013846593134700100000000455724700100006000302648XTECHAG   60003026480001220523003310010010/2022-05-21/100020993
5800102021102158D14955D9             000000000000000000000000022052300012216479524700100000000644914700100006000323335XTECHAG   60003233350001220228003310030010/2022-05-21/100020994
5800102021102158D14955D9             000000000000000000000000022052300012216479524700100000000044954700100006000323335XTECHAG   60003233350001220523003310010010/2022-05-21/100020995
58001020211008A103A602B8             000000000000000000000000022052300012744016724700100000002299824700100006000324137XTECHAG   60003241370001220523003302010010/2022-05-21/100020996
580010202110083B35CA1CE4             000000000000000000000000022052300012277035014700100000011200154700100006000326938XTECHAG   60003269380001220523003302010010/2022-05-21/100020997
580010202110088F16D39BBF             000000000000000000000000022052300013311788924700100000008371824700100006000100603XTECHAG   60001006030001220523003302010010/2022-05-21/100020998
580010202110086F1B86B486             000000000000000000000000022052300011953292004700100000002367674700100006000101766XTECHAG   60001017660001220523003302010010/2022-05-21/100020999
580010202110214060940185             000000000000000000000000022052300011550434464700100000000945984700100006000103823XTECHAG   60001038230001220523003310010010/2022-05-21/100021000
58001020211008E0AAC715E2             000000000000000000000000022052300011413281414700100000001209504700100006000108361XTECHAG   60001083610001220523003302010010/2022-05-21/100021001
580010202110081F3C64C97A             000000000000000000000000022052300012724557834700100000009341914700100006000119215XTECHAG   60001192150001220523003302010010/2022-05-21/100021002
580010202110217E53DCC24E             000000000000000000000000022052300012244761644700100000001065584700100006000247299XTECHAG   60002472990001220428003310030010/2022-05-21/100021003
58001020211021792448B7E4             000000000000000000000000022052300014543104114700100000000514804700100006000263324XTECHAG   60002633240001220523003310010010/2022-05-21/100021004
580010202110086AD929A939             000000000000000000000000022052300013230846984700100000009638754700100006000264401XTECHAG   60002644010001220523003302010010/2022-05-21/100021005
580010202110215FC60EFB7E             000000000000000000000000022052300011350857634700100000000454394700100006000269411XTECHAG   60002694110001220428003310030010/2022-05-21/100021006
5800102021100800A912D01C             000000000000000000000000022052300013496859904700100000006206934700100006000054679XTECHAG   60000546790001220523003302010010/2022-05-21/100021007
5800102021101212056FF385             000000000000000000000000022052300013138362714700100000000266994700100006000063325XTECHAG   60000633250001220422003310030010/2022-05-21/100021008
580010202110211A392333F0             000000000000000000000000022052300013119291754700100000000308954700100006000063643XTECHAG   60000636430001220523003310010010/2022-05-21/100021009
580010202110085A81BEDCFD             000000000000000000000000022052300014094611044700100000009586254700100006000101871XTECHAG   60001018710001220523003302010010/2022-05-21/100021010
58001020211015443DF9C81C             000000000000000000000000022052300013703986794700100000000784654700100006000110048XTECHAG   60001100480001220422003310030010/2022-05-21/100021011
58001020211015927803D10D             000000000000000000000000022052300011994621774700100000000355674700100006000111028XTECHAG   60001110280001220423003310030010/2022-05-21/100021012
58001020211015675BE38566             000000000000000000000000022052300011715898064700100000006956934700100006000116976XTECHAG   60001169760001220523003302010010/2022-05-21/100021013
580010202110081099A3DD8E             000000000000000000000000022052300011419736084700100000000745414700100006000119363XTECHAG   60001193630001220523003302010010/2022-05-21/100021014
580010202110085349202EE3             000000000000000000000000022052300011158892044700100000013493194700100006000088115XTECHAG   60000881150001220523003302010010/2022-05-21/100021015
58001020211008112DB8F171             000000000000000000000000022052300011120161884700100000015820254700100006000093445XTECHAG   60000934450001220523003302010010/2022-05-21/100021016
580010202110213A99D822B8             000000000000000000000000022052300012844553684700100000000591024700100006000096304XTECHAG   60000963040001220523003310010010/2022-05-21/100021017
58001020211008E7E96F1D64             000000000000000000000000022052300013974195024700100000000025004700100006000100808XTECHAG   60001008080001220523003302010010/2022-05-21/100021018
58001020211021E670C8942E             000000000000000000000000022052300012319291604700100000000246274700100006000101278XTECHAG   60001012780001220523003310010010/2022-05-21/100021019
58001020211015CC233B3A27             000000000000000000000000022052300012910974634700100000006253844700100006000105095XTECHAG   60001050950001220523003302010010/2022-05-21/100021020
58001020211021A5B33590D6             000000000000000000000000022052300013201273614700100000000370074700100006000115457XTECHAG   60001154570001220523003310010010/2022-05-21/100021021
5800102021102174EA2F2AEA             000000000000000000000000022052300012308330114700100000000791214700100006000122461XTECHAG   60001224610001220428003310030010/2022-05-21/100021022
58001020211015DC30C3E1C3             000000000000000000000000022052300012248768124700100000000082384700100006000124618XTECHAG   60001246180001220422003310030010/2022-05-21/100021023
58001020211015FDB8434C53             000000000000000000000000022052300013147095594700100000000441274700100006000125886XTECHAG   60001258860001220422003310030010/2022-05-21/100021024
5800102021100844D53D19C2             000000000000000000000000022052300011251615644700100000012503644700100006000135261XTECHAG   60001352610001220523003302010010/2022-05-21/100021025
58001020211015C4BCF4573A             000000000000000000000000022052300012387510574700100000001474834700100006000065794XTECHAG   60000657940001220523003310010010/2022-05-21/100021026
58001020211008E2D5919AFD             000000000000000000000000022052300013127650794700100000006598834700100006000066707XTECHAG   60000667070001220523003302010010/2022-05-21/100021027
580010202110081925432637             000000000000000000000000022052300013407897264700100000000025004700100006000071263XTECHAG   60000712630001220523003302010010/2022-05-21/100021028
58001020211008D66BEC10CF             000000000000000000000000022052300013822720204700100000008684934700100006000071301XTECHAG   60000713010001220523003302010010/2022-05-21/100021029
580010202110219301169EE9             000000000000000000000000022052300013560727104700100000000755184700100006000002768XTECHAG   60000027680001220523003310010010/2022-05-21/100021030
58001020211021251181B42F             000000000000000000000000022052300013102555104700100000000146254700100006000139658XTECHAG   60001396580001220523003310010010/2022-05-21/100021031
58001020211008ADD5F34E64             000000000000000000000000022052300011519365354700100000002323114700100006000146352XTECHAG   60001463520001220523003302010010/2022-05-21/100021032
5800102021101525C6D3913E             000000000000000000000000022052300013209225524700100000000753344700100006000152492XTECHAG   60001524920001220523003302010010/2022-05-21/100021033
58001020211008DAEC764258             000000000000000000000000022052300013505265074700100000008887714700100006000160444XTECHAG   60001604440001220523003302010010/2022-05-21/100021034
5800102021102180270993F5             000000000000000000000000022052300012638132144700100000000484504700100006000009339XTECHAG   60000093390001220523003310010010/2022-05-21/100021035
580010202109218A79B4BB45             000000000000000000000000022052300011985035894700100000000170194700100006000121724XTECHAG   60001217240001220422003310030010/2022-05-21/100021036
5800102021102174EA2F2AEA             000000000000000000000000022052300012308330114700100000000769514700100006000122461XTECHAG   60001224610001220523003310010010/2022-05-21/100021037
58001020211015F15725CEB2             000000000000000000000000022052300013304505134700100000000149894700100006000006690XTECHAG   60000066900001220422003310030010/2022-05-21/100021038
580010202110219301169EE9             000000000000000000000000022052300013560727104700100000000776734700100006000002768XTECHAG   60000027680001220428003310030010/2022-05-21/100021039
580010202110086C91E6CD3F             000000000000000000000000022052300013344382084700100000003507654700100006000130898XTECHAG   60001308980001220523003302010010/2022-05-21/100021040
58001020211008AE16B1C425             000000000000000000000000022052300011109661704700100000001164374700100006000115562XTECHAG   60001155620001220523003302010010/2022-05-21/100021041
580010202110087EBD9F6CFC             000000000000000000000000022052300011263090504700100000008651594700100006000122275XTECHAG   60001222750001220523003302010010/2022-05-21/100021042
5800102021101536EB69DE85             000000000000000000000000022052300011333503114700100000000195604700100006000013301XTECHAG   60000133010001220523003302010010/2022-05-21/100021043
58001020211015BCD40413DD             000000000000000000000000022052300014204988174700100000000072094700100006000228820XTECHAG   60002288200001220422003310030010/2022-05-21/100021044
58001020211021528415EB6E             000000000000000000000000022052300012658210364700100000000196104700100006000234049XTECHAG   60002340490001220428003310030010/2022-05-21/100021045
5800102021101525B6085B60             000000000000000000000000022052300011432563934700100000000034484700100006000238893XTECHAG   60002388930001220422003310030010/2022-05-21/100021046
5800102021102126B3EF2A18             000000000000000000000000022052300012166113414700100000000425024700100006000241371XTECHAG   60002413710001220428003310030010/2022-05-21/100021047
58001020211015EE5110AC02             000000000000000000000000022052300013554257334700100000000328854700100006000256026XTECHAG   60002560260001220422003310030010/2022-05-21/100021048
580010202110150A734A11FA             000000000000000000000000022052300011664793214700100000000191594700100006000258827XTECHAG   60002588270001220422003310030010/2022-05-21/100021049
580010202110150C08DFE1E6             000000000000000000000000022052300014202000954700100000000258914700100006000330412XTECHAG   60003304120001220422003310030010/2022-05-21/100021050
58001020211021F3B3213FDA             000000000000000000000000022052300012833134544700100000000423904700100006000347501XTECHAG   60003475010001220428003310030010/2022-05-21/100021051
5800102021100811AAF1FD5E             000000000000000000000000022052300012505507594700100000000362474700100006000348044XTECHAG   60003480440001220523003302010010/2022-05-21/100021052
5800102021102187A8FCF080             000000000000000000000000022052300012765109914700100000000565214700100006000352467XTECHAG   60003524670001220428003310030010/2022-05-21/100021053
5800102021100869909B369D             000000000000000000000000022052300013234573114700100000007345704700100006000276140XTECHAG   60002761400001220523003302010010/2022-05-21/100021054
5800102021101568033ACFB6             000000000000000000000000022052300013914881464700100000003376014700100006000279360XTECHAG   60002793600001220523003302010010/2022-05-21/100021055
580010202109216D0DC0A8DE             000000000000000000000000022052300011427118604700100000000454554700100006000303768XTECHAG   60003037680001220422003310030010/2022-05-21/100021056
58001020211021C52199B779             000000000000000000000000022052300013109727354700100000000468534700100006000307909XTECHAG   60003079090001220523003310010010/2022-05-21/100021057
580010202110158BE45038CB             000000000000000000000000022052300011457947594700100000000314104700100006000136683XTECHAG   60001366830001220422003310030010/2022-05-21/100021058
580010202110155A95ACC9A5             000000000000000000000000022052300011619565714700100000000100864700100006000143264XTECHAG   60001432640001220422003310030010/2022-05-21/100021059
58001020211008BCC34A02A0             000000000000000000000000022052300011434978034700100000006785364700100006000160460XTECHAG   60001604600001220523003302010010/2022-05-21/100021060
58001020211021653ECA56CF             000000000000000000000000022052300011736340194700100000000528614700100006000162323XTECHAG   60001623230001220331003310030010/2022-05-21/100021061
58001020211021C5243E693A             000000000000000000000000022052300012081787744700100000000089574700100006000125797XTECHAG   60001257970001220523003310010010/2022-05-21/100021062
5800102021101504C50E5D9D             000000000000000000000000022052300012154373804700100000000155114700100006000136691XTECHAG   60001366910001220523003310010010/2022-05-21/100021063
58001020211021D6287AE179             000000000000000000000000022052300011750367554700100000000516604700100006000143027XTECHAG   60001430270001220523003310010010/2022-05-21/100021064
580010202110083533C4EE61             000000000000000000000000022052300013597749454700100000000789774700100006000077008XTECHAG   60000770080001220523003302010010/2022-05-21/100021065
58001020211015CAFEAE2908             000000000000000000000000022052300011406867104700100000000270454700100006000081684XTECHAG   60000816840001220422003310030010/2022-05-21/100021066
5800102021100892027A3BCE             000000000000000000000000022052300012994469394700100000011011934700100006000084500XTECHAG   60000845000001220523003302010010/2022-05-21/100021067
58001020211021628BA37CB5             000000000000000000000000022052300012455520054700100000000489734700100006000133005XTECHAG   60001330050001220523003310010010/2022-05-21/100021068
5800102021102119EFD22C8A             000000000000000000000000022052300012215904544700100000000538664700100006000141717XTECHAG   60001417170001220523003310010010/2022-05-21/100021069
580010202110127B56F3FEE4             000000000000000000000000022052300014087688264700100000000104094700100006000142276XTECHAG   60001422760001220423003310030010/2022-05-21/100021070
58001020211021CEFCB28708             000000000000000000000000022052300012206674614700100000001248524700100006000162579XTECHAG   60001625790001220523003310010010/2022-05-21/100021071
5800102021101546CEA9BFC2             000000000000000000000000022052300012122715384700100000000892064700100006000187849XTECHAG   60001878490001220523003302010010/2022-05-21/100021072
58001020211008ED4F0EE7F9             000000000000000000000000022052300011549514034700100000013059984700100006000215451XTECHAG   60002154510001220523003302010010/2022-05-21/100021073
580010202110159F92254E59             000000000000000000000000022052300014162525744700100000005269574700100006000221737XTECHAG   60002217370001220523003302010010/2022-05-21/100021074
580010202110298B554AABD9             000000000000000000000000022052300013729321094700100000000177864700100006000264894XTECHAG   60002648940001220425003310030010/2022-05-21/100021075
58001020211015290DF7B4FC             000000000000000000000000022052300011621736004700100000000303734700100006000278542XTECHAG   60002785420001220422003310030010/2022-05-21/100021076
580010202110157702A71DEB             000000000000000000000000022052300011223984904700100000000386854700100006000283783XTECHAG   60002837830001220423003310030010/2022-05-21/100021077
580010202110124484AC8F3F             000000000000000000000000022052300014635035294700100000000324214700100006000285727XTECHAG   60002857270001220422003310030010/2022-05-21/100021078
580010202110152EAF9B7316             000000000000000000000000022052300014231313964700100000000160674700100006000286898XTECHAG   60002868980001220422003310030010/2022-05-21/100021079
58001020211008F648C9345B             000000000000000000000000022052300014612811384700100000008675734700100006000308816XTECHAG   60003088160001220523003302010010/2022-05-21/100021080
580010202110291E29CF6EAE             000000000000000000000000022052300014161041684700100000000098774700100006000314662XTECHAG   60003146620001220423003310030010/2022-05-21/100021081
580010202110084E03180F07             000000000000000000000000022052300012834245744700100000006510244700100006000321065XTECHAG   60003210650001220523003302010010/2022-05-21/100021082
58001020211015AF50875C06             000000000000000000000000022052300014299857884700100000000124424700100006000321146XTECHAG   60003211460001220422003310030010/2022-05-21/100021083
58001020211015366D2E0356             000000000000000000000000022052300014440887674700100000000147894700100006000326199XTECHAG   60003261990001220422003310030010/2022-05-21/100021084
5800102021102119ABE847D1             000000000000000000000000022052300012446737554700100000001543884700100006000337573XTECHAG   60003375730001220428003310030010/2022-05-21/100021085
58001020211008C3B46BD029             000000000000000000000000022052300013553245704700100000002030284700100006000174100XTECHAG   60001741000001220523003302010010/2022-05-21/100021086
58001020211015EDB245F3CB             000000000000000000000000022052300011547219634700100000001311054700100006000175522XTECHAG   60001755220001220523003310010010/2022-05-21/100021087
580010202110152327954A29             000000000000000000000000022052300013761700684700100000000114514700100006000176472XTECHAG   60001764720001220422003310030010/2022-05-21/100021088
58001020211021EB38F95584             000000000000000000000000022052300012894329004700100000000430764700100006000176480XTECHAG   60001764800001220523003310010010/2022-05-21/100021089
5800102021100863C09205F8             000000000000000000000000022052300011955722964700100000004718924700100006000148746XTECHAG   60001487460001220523003302010010/2022-05-21/100021090
580010202110153175096BAF             000000000000000000000000022052300011366607534700100000003839114700100006000150465XTECHAG   60001504650001220523003302010010/2022-05-21/100021091
58001020211008F8F4F33C54             000000000000000000000000022052300012942709564700100000017693934700100006000167600XTECHAG   60001676000001220523003302010010/2022-05-21/100021092
58001020211008E1BE6E6408             000000000000000000000000022052300013129008474700100000007408584700100006000088077XTECHAG   60000880770001220523003302010010/2022-05-21/100021093
58001020211018C1EE58D7CB             000000000000000000000000022052300013496007314700100000000141564700100006000088263XTECHAG   60000882630001220422003310030010/2022-05-21/100021094
5800102021100873AAF630C9             000000000000000000000000022052300011865215524700100000009202714700100006000088549XTECHAG   60000885490001220523003302010010/2022-05-21/100021095
5800102021100899AB48D475             000000000000000000000000022052300011147686244700100000000922404700100006000088646XTECHAG   60000886460001220523003302010010/2022-05-21/100021096
58001020211021F5EE4B000B             000000000000000000000000022052300011573689034700100000000445484700100006000089170XTECHAG   60000891700001220523003310010010/2022-05-21/100021097
58001020211008196E80A9AC             000000000000000000000000022052300011893751074700100000006802064700100006000090454XTECHAG   60000904540001220523003302010010/2022-05-21/100021098
5800102021100845F12EC4EF             000000000000000000000000022052300011587699284700100000013223224700100006000090969XTECHAG   60000909690001220523003302010010/2022-05-21/100021099
58001020211018B2546FAC98             000000000000000000000000022052300014642779804700100000000295124700100006000151593XTECHAG   60001515930001220422003310030010/2022-05-21/100021100
58001020211008F7151AC477             000000000000000000000000022052300012371364564700100000004368264700100006000160681XTECHAG   60001606810001220523003302010010/2022-05-21/100021101
58001020211021653ECA56CF             000000000000000000000000022052300011736340194700100000000506554700100006000162323XTECHAG   60001623230001220523003310010010/2022-05-21/100021102
58001020211015F46FE8A499             000000000000000000000000022052300011250860744700100000000525244700100006000226003XTECHAG   60002260030001220523003310010010/2022-05-21/100021103
58001020211015B190CB711B             000000000000000000000000022052300012367274184700100000000781504700100006000253264XTECHAG   60002532640001220523003302010010/2022-05-21/100021104
58001020211021CF29C0A21E             000000000000000000000000022052300012391370934700100000000582794700100006000268245XTECHAG   60002682450001220523003310010010/2022-05-21/100021105
58001020211008870187A66C             000000000000000000000000022052300013067984164700100000022631794700100006000291239XTECHAG   60002912390001220523003302010010/2022-05-21/100021106
580010202110214D3312D35F             000000000000000000000000022052300011380504484700100000000470634700100006000296486XTECHAG   60002964860001220428003310030010/2022-05-21/100021107
58001020211012AD9B9662E7             000000000000000000000000022052300011968777164700100000000113664700100006000298659XTECHAG   60002986590001220422003310030010/2022-05-21/100021108
58001020211012905D6F7A7B             000000000000000000000000022052300014490958264700100000000044704700100006000309871XTECHAG   60003098710001220523003310010010/2022-05-21/100021109
5800102021102125F599F00D             000000000000000000000000022052300011159422614700100000000501764700100006000316762XTECHAG   60003167620001220428003310030010/2022-05-21/100021110
58001020211008BA96E4AF48             000000000000000000000000022052300012901674844700100000005234564700100006000341260XTECHAG   60003412600001220523003302010010/2022-05-21/100021111
58001020211021340A01F13F             000000000000000000000000022052300012795219194700100000000115444700100006000345436XTECHAG   60003454360001220428003310030010/2022-05-21/100021112
580010202110216ACECD3BC3             000000000000000000000000022052300014979965444700100000001197544700100006000347331XTECHAG   60003473310001220523003310010010/2022-05-21/100021113
58001020211021F3B3213FDA             000000000000000000000000022052300012833134544700100000000414904700100006000347501XTECHAG   60003475010001220523003310010010/2022-05-21/100021114
5800102021102120690A64C6             000000000000000000000000022052300011622776514700100000000248674700100006000177967XTECHAG   60001779670001220428003310030010/2022-05-21/100021115
58001020211021ADD67BCC68             000000000000000000000000022052300011223975244700100000000156074700100006000178130XTECHAG   60001781300001220523003310010010/2022-05-21/100021116
5800102021102141F0C75BBB             000000000000000000000000022052300012310297124700100000000676454700100006000179595XTECHAG   60001795950001220523003310010010/2022-05-21/100021117
5800102021100889C4646614             000000000000000000000000022052300011148191054700100000001044944700100006000182278XTECHAG   60001822780001220523003302010010/2022-05-21/100021118
58001020211015B4AEE0132C             000000000000000000000000022052300011318405594700100000000540254700100006000360281XTECHAG   60003602810001220423003310030010/2022-05-21/100021119
58001020211008C902401C3A             000000000000000000000000022052300013170745464700100000006988334700100006000360869XTECHAG   60003608690001220523003302010010/2022-05-21/100021120
580010202109212D1C8BF524             000000000000000000000000022052300013461604984700100000000185254700100006000368991XTECHAG   60003689910001220422003310030010/2022-05-21/100021121
5800102021102141C3E99660             000000000000000000000000022052300012694478564700100000000171274700100006000180917XTECHAG   60001809170001220523003310010010/2022-05-21/100021122
580010202110089B210EFB86             000000000000000000000000022052300014954774694700100000002682254700100006000185447XTECHAG   60001854470001220523003302010010/2022-05-21/100021123
58001020211021ECB8FCFC98             000000000000000000000000022052300012844139914700100000000347814700100006000194969XTECHAG   60001949690001220523003310010010/2022-05-21/100021124
58001020211021280828152E             000000000000000000000000022052300012816042224700100000000303774700100006000196627XTECHAG   60001966270001220523003310010010/2022-05-21/100021125
580010202110213D56D75073             000000000000000000000000022052300012950380114700100000001139814700100006000196678XTECHAG   60001966780001220523003310010010/2022-05-21/100021126
58001020211015E1E19CF3AC             000000000000000000000000022052300014634301494700100000000265144700100006000096177XTECHAG   60000961770001220523003310010010/2022-05-21/100021127
5800102021100862EFD5A498             000000000000000000000000022052300013751040614700100000013574204700100006000097068XTECHAG   60000970680001220523003302010010/2022-05-21/100021128
580010202110086341F9DC98             000000000000000000000000022052300013637970754700100000007269134700100006000098234XTECHAG   60000982340001220523003302010010/2022-05-21/100021129
5800102021100444DDAD7B76             000000000000000000000000022052300012100080154700100000012487244700100006000098668XTECHAG   60000986680001220523003302010010/2022-05-21/100021130
580010202110155E13871046             000000000000000000000000022052300013711716434700100000000203224700100006000167155XTECHAG   60001671550001220422003310030010/2022-05-21/100021131
58001020211012F2DED3E256             000000000000000000000000022052300011482728184700100000000538004700100006000169239XTECHAG   60001692390001220422003310030010/2022-05-21/100021132
58001020211015FD1BE34F6D             000000000000000000000000022052300011368415104700100000009017204700100006000175751XTECHAG   60001757510001220523003302010010/2022-05-21/100021133
58001020211008C2B4C8FA0E             000000000000000000000000022052300011852021514700100000011220384700100006000176685XTECHAG   60001766850001220523003302010010/2022-05-21/100021134
5800102021102180943F930C             000000000000000000000000022052300012814851264700100000000739944700100006000179285XTECHAG   60001792850001220523003310010010/2022-05-21/100021135
580010202110214D3312D35F             000000000000000000000000022052300011380504484700100000000461844700100006000296486XTECHAG   60002964860001220523003310010010/2022-05-21/100021136
58001020211021A7CB228322             000000000000000000000000022052300014311446474700100000000509674700100006000298675XTECHAG   60002986750001220523003310010010/2022-05-21/100021137
58001020211008964D25D072             000000000000000000000000022052300013877571974700100000008433654700100006000311698XTECHAG   60003116980001220523003302010010/2022-05-21/100021138
5800102021102125F599F00D             000000000000000000000000022052300011159422614700100000000492254700100006000316762XTECHAG   60003167620001220523003310010010/2022-05-21/100021139
58001020211008711BD50304             000000000000000000000000022052300011953057864700100000015104614700100006000319591XTECHAG   60003195910001220523003302010010/2022-05-21/100021140
58001020211008CA00DB895C             000000000000000000000000022052300011302490404700100000000846664700100006000340310XTECHAG   60003403100001220523003302010010/2022-05-21/100021141
580010202110216C71D8C3D7             000000000000000000000000022052300012943241694700100000001313414700100006000322584XTECHAG   60003225840001220523003310010010/2022-05-21/100021142
58001020211012F57C42D5C4             000000000000000000000000022052300013810346494700100000000241914700100006000336348XTECHAG   60003363480001220423003310030010/2022-05-21/100021143
58001020211021D29A36F1D9             000000000000000000000000022052300011946798794700100000001285524700100006000380835XTECHAG   60003808350001220428003310030010/2022-05-21/100021144
58001020211015DD8F6008AA             000000000000000000000000022052300011890495954700100000000145464700100006000389662XTECHAG   60003896620001220422003310030010/2022-05-21/100021145
5800102021100841FA3DD540             000000000000000000000000022052300014211144354700100000013370464700100006000393244XTECHAG   60003932440001220523003302010010/2022-05-21/100021146
58001020211008333A389299             000000000000000000000000022052300012744165484700100000004165764700100006000350391XTECHAG   60003503910001220523003302010010/2022-05-21/100021147
58001020211021A30309DEFB             000000000000000000000000022052300011206651304700100000000280324700100006000357159XTECHAG   60003571590001220428003310030010/2022-05-21/100021148
58001020211008C4AA5DD4E2             000000000000000000000000022052300013715057114700100000013649084700100006000358481XTECHAG   60003584810001220523003302010010/2022-05-21/100021149
580010202110210247F04FD0             000000000000000000000000022052300012811942964700100000000717154700100006000374878XTECHAG   60003748780001220523003310010010/2022-05-21/100021150
58001020211021727ECCF45F             000000000000000000000000022052300012489175514700100000000635494700100006000381424XTECHAG   60003814240001220523003310010010/2022-05-21/100021151
580010202110212090B3A0E6             000000000000000000000000022052300013014512644700100000001137814700100006000186958XTECHAG   60001869580001220523003310010010/2022-05-21/100021152
58001020211021F9022BD321             000000000000000000000000022052300013567495084700100000000706914700100006000187180XTECHAG   60001871800001220523003310010010/2022-05-21/100021153
58001020211021482696D834             000000000000000000000000022052300012463440314700100000000209494700100006000188950XTECHAG   60001889500001220523003310010010/2022-05-21/100021154
5800102021102108BF43CE51             000000000000000000000000022052300014311564164700100000000504784700100006000189167XTECHAG   60001891670001220428003310030010/2022-05-21/100021155
5800102021102109DCB967C3             000000000000000000000000022052300011271110844700100000000759724700100006000189795XTECHAG   60001897950001220428003310030010/2022-05-21/100021156
580010202109215EE21F3091             000000000000000000000000022052300011652538934700100000000849024700100006000404521XTECHAG   60004045210001220422003310030010/2022-05-21/100021157
580010202110217A36147DDE             000000000000000000000000022052300011604060984700100000000251984700100006000408209XTECHAG   60004082090001220428003310030010/2022-05-21/100021158
580010202110217A36147DDE             000000000000000000000000022052300011604060984700100000000247604700100006000408209XTECHAG   60004082090001220523003310010010/2022-05-21/100021159
580010202110212731FF9135             000000000000000000000000022052300012928738154700100000000582074700100006000199693XTECHAG   60001996930001220523003310010010/2022-05-21/100021160
580010202110085C02B13249             000000000000000000000000022052300012857815954700100000007866144700100006000211847XTECHAG   60002118470001220523003302010010/2022-05-21/100021161
58001020211021D8AA3AF1C3             000000000000000000000000022052300011352468804700100000000402644700100006000232763XTECHAG   60002327630001220523003310010010/2022-05-21/100021162
58001020211015ADF49CC1E5             000000000000000000000000022052300013424066034700100000000711574700100006000106741XTECHAG   60001067410001220422003310030010/2022-05-21/100021163
58001020211008BE012F56C7             000000000000000000000000022052300013149055014700100000004060824700100006000107446XTECHAG   60001074460001220523003302010010/2022-05-21/100021164
5800102021101510AA33CCCE             000000000000000000000000022052300013735747884700100000000435404700100006000179366XTECHAG   60001793660001220523003310010010/2022-05-21/100021165
580010202110087CE8CCFE31             000000000000000000000000022052300013285130824700100000000968494700100006000182529XTECHAG   60001825290001220523003302010010/2022-05-21/100021166
5800102021102195B0DE2519             000000000000000000000000022052300012880770314700100000000730014700100006000183517XTECHAG   60001835170001220523003310010010/2022-05-21/100021167
5800102021102108BF43CE51             000000000000000000000000022052300014311564164700100000000493404700100006000189167XTECHAG   60001891670001220523003310010010/2022-05-21/100021168
58001020211021F5F317C721             000000000000000000000000022052300013571564704700100000000768874700100006000351061XTECHAG   60003510610001220523003310010010/2022-05-21/100021169
58001020211015B09E74EF83             000000000000000000000000022052300011581578414700100000000432924700100006000357493XTECHAG   60003574930001220523003302010010/2022-05-21/100021170
580010202110087DDCD4C559             000000000000000000000000022052300011497803374700100000005650664700100006000382935XTECHAG   60003829350001220523003302010010/2022-05-21/100021171
580010202110157FD6659843             000000000000000000000000022052300011419905454700100000006044714700100006000388194XTECHAG   60003881940001220523003302010010/2022-05-21/100021172
58001020211008FB699ACE0B             000000000000000000000000022052300011296285214700100000002514904700100006000392027XTECHAG   60003920270001220523003302010010/2022-05-21/100021173
58001020211008DA45994697             000000000000000000000000022052300011639641644700100000012872994700100006000411455XTECHAG   60004114550001220523003302010010/2022-05-21/100021174
580010202110215714CC9740             000000000000000000000000022052300011339273844700100000000636514700100006000415507XTECHAG   60004155070001220523003310010010/2022-05-21/100021175
58001020211021729F715332             000000000000000000000000022052300012361822924700100000000279764700100006000395948XTECHAG   60003959480001220428003310030010/2022-05-21/100021176
58001020211008437D85152A             000000000000000000000000022052300014988893774700100000004763154700100006000396146XTECHAG   60003961460001220523003302010010/2022-05-21/100021177
58001020211008749F4D6F4D             000000000000000000000000022052300012718028704700100000009577244700100006000399374XTECHAG   60003993740001220523003302010010/2022-05-21/100021178
580010202110157428529247             000000000000000000000000022052300012093955314700100000000180494700100006000404718XTECHAG   60004047180001220422003310030010/2022-05-21/100021179
58001020211018CEAD2D240B             000000000000000000000000022052300011897134444700100000000364784700100006000382420XTECHAG   60003824200001220422003310030010/2022-05-21/100021180
580010202110213761138476             000000000000000000000000022052300012774332144700100000000575804700100006000382668XTECHAG   60003826680001220523003310010010/2022-05-21/100021181
58001020211015AB5AB37903             000000000000000000000000022052300012066026094700100000000745444700100006000385454XTECHAG   60003854540001220422003310030010/2022-05-21/100021182
58001020211008674AA1133D             000000000000000000000000022052300012801683134700100000011443614700100006000389603XTECHAG   60003896030001220523003302010010/2022-05-21/100021183
58001020211008E3162E1FC6             000000000000000000000000022052300012625124584700100000000140514700100006000391330XTECHAG   60003913300001220523003302010010/2022-05-21/100021184
58001020211012601FA05EFA             000000000000000000000000022052300014102287874700100000000098784700100006000191668XTECHAG   60001916680001220422003310030010/2022-05-21/100021185
58001020211021AFE3C8727D             000000000000000000000000022052300011696267404700100000000347054700100006000192079XTECHAG   60001920790001220523003310010010/2022-05-21/100021186
58001020211021ECB8FCFC98             000000000000000000000000022052300012844139914700100000000353684700100006000194969XTECHAG   60001949690001220428003310030010/2022-05-21/100021187
58001020211021280828152E             000000000000000000000000022052300012816042224700100000000310484700100006000196627XTECHAG   60001966270001220428003310030010/2022-05-21/100021188
58001020211021EDF00D8F30             000000000000000000000000022052300012398011634700100000000403554700100006000197747XTECHAG   60001977470001220523003310010010/2022-05-21/100021189
580010202110212FC8A96FE9             000000000000000000000000022052300012321405604700100000001350564700100006000210190XTECHAG   60002101900001220523003310010010/2022-05-21/100021190
5800102021100819825F75C4             000000000000000000000000022052300014147121604700100000007257804700100006000414276XTECHAG   60004142760001220523003302010010/2022-05-21/100021191
5800102021101234579D2D05             000000000000000000000000022052300012030665364700100000000220754700100006000414578XTECHAG   60004145780001220422003310030010/2022-05-21/100021192
58001020211015E3E8E4C058             000000000000000000000000022052300013802074184700100000000135544700100006000416457XTECHAG   60004164570001220425003310030010/2022-05-21/100021193
580010202110086998202828             000000000000000000000000022052300012110198194700100000010642614700100006000416589XTECHAG   60004165890001220523003302010010/2022-05-21/100021194
58001020211021EA51019EE1             000000000000000000000000022052300011885160924700100000000963134700100006000258851XTECHAG   60002588510001220523003310010010/2022-05-21/100021195
5800102021102925E31782BD             000000000000000000000000022052300011800907624700100000000395974700100006000289846XTECHAG   60002898460001220523003310010010/2022-05-21/100021196
5800102021100851DB62A6DE             000000000000000000000000022052300011596932404700100000005255654700100006000108086XTECHAG   60001080860001220523003302010010/2022-05-21/100021197
58001020211008F8AC764C5F             000000000000000000000000022052300013064670024700100000012773734700100006000108744XTECHAG   60001087440001220523003302010010/2022-05-21/100021198
580010202110086DB586B842             000000000000000000000000022052300013157077624700100000000885014700100006000109244XTECHAG   60001092440001220523003302010010/2022-05-21/100021199
58001020211008420213AE2F             000000000000000000000000022052300011175060864700100000000817864700100006000110439XTECHAG   60001104390001220523003302010010/2022-05-21/100021200
5800102021102128DED9AFC1             000000000000000000000000022052300011844830414700100000000287174700100006000191390XTECHAG   60001913900001220523003310010010/2022-05-21/100021201
58001020211008576F968835             000000000000000000000000022052300013565550454700100000013833794700100006000193385XTECHAG   60001933850001220523003302010010/2022-05-21/100021202
580010202110154D9F1E2600             000000000000000000000000022052300012714665524700100000000373054700100006000195345XTECHAG   60001953450001220523003302010010/2022-05-21/100021203
58001020211015034C625B14             000000000000000000000000022052300012367203914700100000000632194700100006000197488XTECHAG   60001974880001220523003302010010/2022-05-21/100021204
58001020211021EDF00D8F30             000000000000000000000000022052300012398011634700100000000411854700100006000197747XTECHAG   60001977470001220428003310030010/2022-05-21/100021205
58001020211021D770690B53             000000000000000000000000022052300013204451504700100000000429344700100006000199073XTECHAG   60001990730001220523003310010010/2022-05-21/100021206
58001020211008DBE9A04D54             000000000000000000000000022052300013723292324700100000005931314700100006000429931XTECHAG   60004299310001220523003302010010/2022-05-21/100021207
5800102021100897BC11AA6A             000000000000000000000000022052300012139306084700100000007627934700100006000454804XTECHAG   60004548040001220523003302010010/2022-05-21/100021208
5800102021102187344C5227             000000000000000000000000022052300012048232414700100000000227594700100006000463684XTECHAG   60004636840001220523003310010010/2022-05-21/100021209
58001020211021F51793425D             000000000000000000000000022052300011545700434700100000000318964700100006000486307XTECHAG   60004863070001220523003310010010/2022-05-21/100021210
58001020211021EDFB765F2F             000000000000000000000000022052300011489853344700100000000336504700100006000488660XTECHAG   60004886600001220523003310010010/2022-05-21/100021211
58001020211015E1C86ED02E             000000000000000000000000022052300012817745354700100000000176074700100006000425413XTECHAG   60004254130001220422003310030010/2022-05-21/100021212
5800102021102142F716EECD             000000000000000000000000022052300012578931634700100000000141484700100006000431391XTECHAG   60004313910001220428003310030010/2022-05-21/100021213
5800102021101515D3217854             000000000000000000000000022052300012669931834700100000001000314700100006000446615XTECHAG   60004466150001220422003310030010/2022-05-21/100021214
58001020211015A89A9C62DC             000000000000000000000000022052300012105343294700100000000050804700100006000449541XTECHAG   60004495410001220422003310030010/2022-05-21/100021215
58001020211008DCF042168F             000000000000000000000000022052300013089640464700100000008405754700100006000393325XTECHAG   60003933250001220523003302010010/2022-05-21/100021216
58001020211015F6B7F6D2FA             000000000000000000000000022052300013347331614700100000005466514700100006000395263XTECHAG   60003952630001220523003302010010/2022-05-21/100021217
580010202110155AE0D2B42F             000000000000000000000000022052300012436020214700100000000930194700100006000401476XTECHAG   60004014760001220422003310030010/2022-05-21/100021218
58001020211015D5E83669D4             000000000000000000000000022052300012028804504700100000001344414700100006000409299XTECHAG   60004092990001220523003310010010/2022-05-21/100021219
58001020211021D22B499051             000000000000000000000000022052300012107157144700100000000278384700100006000211464XTECHAG   60002114640001220523003310010010/2022-05-21/100021220
58001020211015EC61B8A589             000000000000000000000000022052300012433721584700100000000197834700100006000217497XTECHAG   60002174970001220422003310030010/2022-05-21/100021221
5800102021102166AB469C12             000000000000000000000000022052300013320369274700100000000802174700100006000218256XTECHAG   60002182560001220428003310030010/2022-05-21/100021222
5800102021102166AB469C12             000000000000000000000000022052300013320369274700100000000784564700100006000218256XTECHAG   60002182560001220523003310010010/2022-05-21/100021223
58001020211021860C08400F             000000000000000000000000022052300013158813634700100000000323054700100006000219678XTECHAG   60002196780001220523003310010010/2022-05-21/100021224
58001020211015BC21F8F31C             000000000000000000000000022052300013407621784700100000005908924700100006000420969XTECHAG   60004209690001220523003302010010/2022-05-21/100021225
5800102021100816512B7E98             000000000000000000000000022052300011622278404700100000000244554700100006000423011XTECHAG   60004230110001220523003302010010/2022-05-21/100021226
580010202110214C06F4E55F             000000000000000000000000022052300011349039504700100000000350094700100006000424425XTECHAG   60004244250001220523003310010010/2022-05-21/100021227
58001020211012478C993016             000000000000000000000000022052300014101111974700100000000587974700100006000426401XTECHAG   60004264010001220422003310030010/2022-05-21/100021228
58001020211015453B37877E             000000000000000000000000022052300013751885164700100000008013994700100006000307860XTECHAG   60003078600001220523003302010010/2022-05-21/100021229
580010202110212A92188CE6             000000000000000000000000022052300011567348924700100000000722214700100006000327888XTECHAG   60003278880001220523003310010010/2022-05-21/100021230
5800102021101532D98CDDB1             000000000000000000000000022052300012897290594700100000016134934700100006000339274XTECHAG   60003392740001220523003302010010/2022-05-21/100021231
58001020211008671CCCB3DB             000000000000000000000000022052300013538679924700100000009260934700100006000342577XTECHAG   60003425770001220523003302010010/2022-05-21/100021232
5800102021101286F47C5BEC             000000000000000000000000022052300014141214994700100000000679874700100006000345207XTECHAG   60003452070001220523003310010010/2022-05-21/100021233
580010202110085599F30C4D             000000000000000000000000022052300011750610914700100000000329084700100006000115759XTECHAG   60001157590001220523003302010010/2022-05-21/100021234
5800102021102198C23956FA             000000000000000000000000022052300012308332594700100000000815324700100006000116755XTECHAG   60001167550001220523003310010010/2022-05-21/100021235
58001020211008B407CFBF1E             000000000000000000000000022052300011759005494700100000001234174700100006000116925XTECHAG   60001169250001220523003302010010/2022-05-21/100021236
58001020211021F224C0D24E             000000000000000000000000022052300014190549274700100000000410004700100006000116992XTECHAG   60001169920001220523003310010010/2022-05-21/100021237
58001020211008959B46C3AD             000000000000000000000000022052300013070488524700100000010076824700100006000120310XTECHAG   60001203100001220523003302010010/2022-05-21/100021238
58001020211008C1199C7A08             000000000000000000000000022052300013248644684700100000001374564700100006000199413XTECHAG   60001994130001220523003302010010/2022-05-21/100021239
58001020211021500004C8D4             000000000000000000000000022052300012041618264700100000000271804700100006000204670XTECHAG   60002046700001220523003310010010/2022-05-21/100021240
58001020211021500004C8D4             000000000000000000000000022052300012041618264700100000000276374700100006000204670XTECHAG   60002046700001220428003310030010/2022-05-21/100021241
58001020211021B6AC5203C3             000000000000000000000000022052300012885536664700100000000813894700100006000206037XTECHAG   60002060370001220523003310010010/2022-05-21/100021242
580010202110214944FA4BCF             000000000000000000000000022052300011407269414700100000000841864700100006000208455XTECHAG   60002084550001220523003310010010/2022-05-21/100021243
580010202110089034583B5B             000000000000000000000000022052300011762607134700100000005872134700100006000511271XTECHAG   60005112710001220523003302010010/2022-05-21/100021244
58001020211008E3406D6E83             000000000000000000000000022052300014632625564700100000013705874700100006000516427XTECHAG   60005164270001220523003302010010/2022-05-21/100021245
58001020211021CC7CD707C6             000000000000000000000000022052300011334811304700100000000340604700100006000517121XTECHAG   60005171210001220523003310010010/2022-05-21/100021246
58001020211021AAB513B31C             000000000000000000000000022052300013101955934700100000000328384700100006000449843XTECHAG   60004498430001220523003310010010/2022-05-21/100021247
5800102021101202ECED057A             000000000000000000000000022052300013540061844700100000000224944700100006000451597XTECHAG   60004515970001220523003310010010/2022-05-21/100021248
58001020211008822DDB6FDC             000000000000000000000000022052300012227718274700100000005776484700100006000453727XTECHAG   60004537270001220523003302010010/2022-05-21/100021249
580010202110081E46854C15             000000000000000000000000022052300014256531444700100000011020254700100006000456912XTECHAG   60004569120001220523003302010010/2022-05-21/100021250
580010202110181EF0406C7B             000000000000000000000000022052300014694121424700100000000493394700100006000457161XTECHAG   60004571610001220422003310030010/2022-05-21/100021251
5800102021102157B4A11C48             000000000000000000000000022052300013235543414700100000000432084700100006000464397XTECHAG   60004643970001220428003310030010/2022-05-21/100021252
58001020211015DBBA944E93             000000000000000000000000022052300012977548064700100000000154914700100006000413814XTECHAG   60004138140001220422003310030010/2022-05-21/100021253
5800102021102193F624F082             000000000000000000000000022052300012100735184700100000000514224700100006000416767XTECHAG   60004167670001220428003310030010/2022-05-21/100021254
58001020211008C5AB58856A             000000000000000000000000022052300012934007244700100000009304644700100006000423828XTECHAG   60004238280001220523003302010010/2022-05-21/100021255
580010202110129E0EE924DC             000000000000000000000000022052300012366007954700100000000935884700100006000425332XTECHAG   60004253320001220422003310030010/2022-05-21/100021256
5800102021100877D14C0563             000000000000000000000000022052300013875275154700100000009865524700100006000432053XTECHAG   60004320530001220523003302010010/2022-05-21/100021257
58001020211021CC22550C08             000000000000000000000000022052300011350644804700100000000388204700100006000223233XTECHAG   60002232330001220523003310010010/2022-05-21/100021258
58001020211008DB79F9522D             000000000000000000000000022052300014141545914700100000001523964700100006000225201XTECHAG   60002252010001220523003302010010/2022-05-21/100021259
58001020211021E149AE45C2             000000000000000000000000022052300011324985284700100000000512464700100006000233344XTECHAG   60002333440001220523003310010010/2022-05-21/100021260
58001020211021EA24590D32             000000000000000000000000022052300011335605964700100000001744094700100006000238303XTECHAG   60002383030001220523003310010010/2022-05-21/100021261
58001020210921F7EE5058E5             000000000000000000000000022052300011835646764700100000000173854700100006000247655XTECHAG   60002476550001220422003310030010/2022-05-21/100021262
5800102021100838082DDCEE             000000000000000000000000022052300011939333564700100000010655454700100006000430212XTECHAG   60004302120001220523003302010010/2022-05-21/100021263
580010202110217EDC896A28             000000000000000000000000022052300012608463754700100000000666694700100006000431138XTECHAG   60004311380001220523003310010010/2022-05-21/100021264
58001020211021F804212D6D             000000000000000000000000022052300013041306474700100000000519254700100006000433823XTECHAG   60004338230001220428003310030010/2022-05-21/100021265
58001020211021F804212D6D             000000000000000000000000022052300013041306474700100000000508244700100006000433823XTECHAG   60004338230001220523003310010010/2022-05-21/100021266
58001020210922589485E7A7             000000000000000000000000022052300012205398034700100000000286784700100006000433866XTECHAG   60004338660001220422003310030010/2022-05-21/100021267
5800102021100805CD0761E1             000000000000000000000000022052300012299959764700100000001047544700100006000123093XTECHAG   60001230930001220523003302010010/2022-05-21/100021268
58001020211008BBBF90B165             000000000000000000000000022052300012533067944700100000004337174700100006000126505XTECHAG   60001265050001220523003302010010/2022-05-21/100021269
58001020211008DE9A6DE54B             000000000000000000000000022052300011249602694700100000008613044700100006000127544XTECHAG   60001275440001220523003302010010/2022-05-21/100021270
580010202110154B61CE6EAD             000000000000000000000000022052300011873569034700100000000245234700100006000129717XTECHAG   60001297170001220523003310010010/2022-05-21/100021271
58001020211008109DB5AABF             000000000000000000000000022052300011697040834700100000019169494700100006000356306XTECHAG   60003563060001220523003302010010/2022-05-21/100021272
58001020211015BFDD64C76F             000000000000000000000000022052300014349540384700100000009446034700100006000371607XTECHAG   60003716070001220523003302010010/2022-05-21/100021273
58001020211008684E84C9C7             000000000000000000000000022052300011158344854700100000022582014700100006000377699XTECHAG   60003776990001220523003302010010/2022-05-21/100021274
5800102021100842DB212238             000000000000000000000000022052300011128804434700100000008408724700100006000383125XTECHAG   60003831250001220523003302010010/2022-05-21/100021275
58001020211008467C1CBE3E             000000000000000000000000022052300011371440154700100000008373694700100006000383729XTECHAG   60003837290001220523003302010010/2022-05-21/100021276
580010202110150C4B10BCC3             000000000000000000000000022052300012416525874700100000000081074700100006000210247XTECHAG   60002102470001220422003310030010/2022-05-21/100021277
5800102021102167795BAE18             000000000000000000000000022052300014852157124700100000000329024700100006000215958XTECHAG   60002159580001220523003310010010/2022-05-21/100021278
580010202110152A731391B7             000000000000000000000000022052300011305364734700100000000750744700100006000220358XTECHAG   60002203580001220523003310010010/2022-05-21/100021279
580010202110156F465E6338             000000000000000000000000022052300012339752594700100000000837704700100006000470737XTECHAG   60004707370001220422003310030010/2022-05-21/100021280
58001020211021969D462B0E             000000000000000000000000022052300013327054464700100000000571374700100006000475062XTECHAG   60004750620001220428003310030010/2022-05-21/100021281
58001020211021D1D5306DC9             000000000000000000000000022052300012332092624700100000000590114700100006000475453XTECHAG   60004754530001220523003310010010/2022-05-21/100021282
58001020211008AB3AC71271             000000000000000000000000022052300014826316424700100000014647924700100006000479742XTECHAG   60004797420001220523003302010010/2022-05-21/100021283
580010202110082B861C85C8             000000000000000000000000022052300012462170804700100000003046844700100006000484029XTECHAG   60004840290001220523003302010010/2022-05-21/100021284
58001020211021DBAB9A64EF             000000000000000000000000022052300012430684754700100000000306904700100006000486048XTECHAG   60004860480001220523003310010010/2022-05-21/100021285
58001020211015702F04DD16             000000000000000000000000022052300011152809784700100000000882414700100006000553802XTECHAG   60005538020001220523003310010010/2022-05-21/100021286
5800102021100809A3581E66             000000000000000000000000022052300012152906064700100000017422614700100006000571789XTECHAG   60005717890001220523003302010010/2022-05-21/100021287
5800102021100837FDB23D4B             000000000000000000000000022052300011881577934700100000015125044700100006000578120XTECHAG   60005781200001220523003302010010/2022-05-21/100021288
5800102021102138DC35DA8F             000000000000000000000000022052300011696427464700100000000410984700100006000591380XTECHAG   60005913800001220523003310010010/2022-05-21/100021289
58001020211015E48C175A1A             000000000000000000000000022052300013612238024700100000000795134700100006000445058XTECHAG   60004450580001220523003302010010/2022-05-21/100021290
580010202110215239690B89             000000000000000000000000022052300013344878964700100000000653214700100006000458710XTECHAG   60004587100001220523003310010010/2022-05-21/100021291
5800102021101531FF29D5D1             000000000000000000000000022052300011214213404700100000001096134700100006000461967XTECHAG   60004619670001220422003310030010/2022-05-21/100021292
580010202110210F22454EDF             000000000000000000000000022052300012588361554700100000000421654700100006000256387XTECHAG   60002563870001220523003310010010/2022-05-21/100021293
580010202110212AF5D34CC7             000000000000000000000000022052300013164035974700100000001466664700100006000258525XTECHAG   60002585250001220523003310010010/2022-05-21/100021294
58001020211008BCD41E5240             000000000000000000000000022052300012534774674700100000013839854700100006000263561XTECHAG   60002635610001220523003302010010/2022-05-21/100021295
58001020211021AD789EBDA8             000000000000000000000000022052300011739082244700100000001073064700100006000274555XTECHAG   60002745550001220523003310010010/2022-05-21/100021296
58001020211008BB61290FDB             000000000000000000000000022052300011474257774700100000001633584700100006000286006XTECHAG   60002860060001220523003302010010/2022-05-21/100021297
5800102021102106BE803849             000000000000000000000000022052300011968172684700100000000314374700100006000292340XTECHAG   60002923400001220523003310010010/2022-05-21/100021298
58001020211018EC9D78E61C             000000000000000000000000022052300013629472194700100000000122444700100006000434684XTECHAG   60004346840001220422003310030010/2022-05-21/100021299
580010202110153D510AA568             000000000000000000000000022052300012032998164700100000000215554700100006000435389XTECHAG   60004353890001220422003310030010/2022-05-21/100021300
580010202110155C2F081D59             000000000000000000000000022052300011444730454700100000000025004700100006000436059XTECHAG   60004360590001220422003310030010/2022-05-21/100021301
5800102021101585E66899E0             000000000000000000000000022052300012220614474700100000000261544700100006000438620XTECHAG   60004386200001220422003310030010/2022-05-21/100021302
58001020210921D099FDE67B             000000000000000000000000022052300011928972674700100000000132354700100006000439600XTECHAG   60004396000001220422003310030010/2022-05-21/100021303
58001020211008B52EC848D1             000000000000000000000000022052300012144783854700100000001723874700100006000442466XTECHAG   60004424660001220523003302010010/2022-05-21/100021304
580010202110089D79BEB9A1             000000000000000000000000022052300013185803994700100000001508494700100006000132734XTECHAG   60001327340001220523003302010010/2022-05-21/100021305
5800102021100898A87F6846             000000000000000000000000022052300013536087414700100000010690244700100006000134958XTECHAG   60001349580001220523003302010010/2022-05-21/100021306
580010202110083FE054970B             000000000000000000000000022052300012287919864700100000014852424700100006000138260XTECHAG   60001382600001220523003302010010/2022-05-21/100021307
58001020211015A04DD400F2             000000000000000000000000022052300014010905064700100000004189064700100006000138279XTECHAG   60001382790001220523003302010010/2022-05-21/100021308
5800102021102171BEC959DA             000000000000000000000000022052300012427896754700100000000419994700100006000142187XTECHAG   60001421870001220523003310010010/2022-05-21/100021309
5800102021100805695C5FD1             000000000000000000000000022052300011491499554700100000004853384700100006000384296XTECHAG   60003842960001220523003302010010/2022-05-21/100021310
58001020211015E194491D37             000000000000000000000000022052300012671434424700100000004311124700100006000387384XTECHAG   60003873840001220523003302010010/2022-05-21/100021311
580010202110158061CEA788             000000000000000000000000022052300012258804734700100000000367704700100006000389530XTECHAG   60003895300001220523003310010010/2022-05-21/100021312
58001020211008C377048E0C             000000000000000000000000022052300013402274934700100000008902824700100006000390725XTECHAG   60003907250001220523003302010010/2022-05-21/100021313
58001020211008F8CBE173C5             000000000000000000000000022052300014987908344700100000006394714700100006000391179XTECHAG   60003911790001220523003302010010/2022-05-21/100021314
580010202110217F4BA62F23             000000000000000000000000022052300012005551964700100000000386654700100006000402391XTECHAG   60004023910001220523003310010010/2022-05-21/100021315
58001020211021F1629F9917             000000000000000000000000022052300011202324634700100000000298794700100006000222121XTECHAG   60002221210001220428003310030010/2022-05-21/100021316
58001020211021CC22550C08             000000000000000000000000022052300011350644804700100000000396464700100006000223233XTECHAG   60002232330001220428003310030010/2022-05-21/100021317
58001020211015711F716C7D             000000000000000000000000022052300011739311964700100000000596534700100006000228154XTECHAG   60002281540001220422003310030010/2022-05-21/100021318
58001020211015B461F241C6             000000000000000000000000022052300014961003264700100000000426024700100006000229797XTECHAG   60002297970001220422003310030010/2022-05-21/100021319
58001020211021D8AA3AF1C3             000000000000000000000000022052300011352468804700100000000410854700100006000232763XTECHAG   60002327630001220428003310030010/2022-05-21/100021320
58001020211021A3B0DD6737             000000000000000000000000022052300013274308094700100000000266054700100006000490320XTECHAG   60004903200001220428003310030010/2022-05-21/100021321
580010202110210AD094D28D             000000000000000000000000022052300013302845754700100000000653824700100006000492145XTECHAG   60004921450001220428003310030010/2022-05-21/100021322
580010202110218495A12238             000000000000000000000000022052300012353682524700100000000367864700100006000493192XTECHAG   60004931920001220428003310030010/2022-05-21/100021323
58001020211008CB09DAF311             000000000000000000000000022052300013473121434700100000013321124700100006000499131XTECHAG   60004991310001220523003302010010/2022-05-21/100021324
58001020211021EE5AD276F9             000000000000000000000000022052300012337545974700100000000495054700100006000609379XTECHAG   60006093790001220428003310030010/2022-05-21/100021325
580010202110212FD63C6E09             000000000000000000000000022052300011363670614700100000000233434700100006000610164XTECHAG   60006101640001220523003310010010/2022-05-21/100021326
58001020211015ADBFA3CE21             000000000000000000000000022052300012869745754700100000000293474700100006000611179XTECHAG   60006111790001220523003310010010/2022-05-21/100021327
58001020211008106C703EC2             000000000000000000000000022052300011382783414700100000008197614700100006000615557XTECHAG   60006155570001220523003302010010/2022-05-21/100021328
5800102021102102386BCF0F             000000000000000000000000022052300011515860624700100000000257274700100006000618645XTECHAG   60006186450001220428003310030010/2022-05-21/100021329
58001020211018EA5890CD44             000000000000000000000000022052300014147262854700100000000174364700100006000625161XTECHAG   60006251610001220422003310030010/2022-05-21/100021330
5800102021102187344C5227             000000000000000000000000022052300012048232414700100000000231324700100006000463684XTECHAG   60004636840001220428003310030010/2022-05-21/100021331
58001020211021EF62182CF2             000000000000000000000000022052300013318603164700100000000331974700100006000465199XTECHAG   60004651990001220523003310010010/2022-05-21/100021332
5800102021101528A2EBC30A             000000000000000000000000022052300013588261194700100000000240754700100006000470974XTECHAG   60004709740001220422003310030010/2022-05-21/100021333
580010202110153F2E46446D             000000000000000000000000022052300013368147894700100000005519734700100006000294947XTECHAG   60002949470001220523003302010010/2022-05-21/100021334
580010202110083619F5C32E             000000000000000000000000022052300012522495414700100000010019604700100006000308956XTECHAG   60003089560001220523003302010010/2022-05-21/100021335
580010202110082C5F61C5C5             000000000000000000000000022052300013079846044700100000008922254700100006000309308XTECHAG   60003093080001220523003302010010/2022-05-21/100021336
58001020211015359FA9224E             000000000000000000000000022052300012906258574700100000000342264700100006000316916XTECHAG   60003169160001220523003310010010/2022-05-21/100021337
580010202110082C6686BDA6             000000000000000000000000022052300012293046554700100000003397314700100006000442946XTECHAG   60004429460001220523003302010010/2022-05-21/100021338
58001020211021ABDE25FB0E             000000000000000000000000022052300011552062484700100000000749054700100006000446496XTECHAG   60004464960001220428003310030010/2022-05-21/100021339
58001020211008BEDFE34FF4             000000000000000000000000022052300012786676774700100000000045134700100006000448006XTECHAG   60004480060001220523003302010010/2022-05-21/100021340
58001020211008E4A7326506             000000000000000000000000022052300012890391764700100000021348874700100006000448499XTECHAG   60004484990001220523003302010010/2022-05-21/100021341
58001020211015F5E8EA2003             000000000000000000000000022052300012163087704700100000015475304700100006000450841XTECHAG   60004508410001220523003302010010/2022-05-21/100021342
580010202110082DC2120A67             000000000000000000000000022052300012564947454700100000000347974700100006000144090XTECHAG   60001440900001220523003302010010/2022-05-21/100021343
580010202110085DAD64FA63             000000000000000000000000022052300012323162944700100000001692064700100006000145879XTECHAG   60001458790001220523003302010010/2022-05-21/100021344
58001020211015ECB5CD1EE8             000000000000000000000000022052300014803451624700100000000126964700100006000145895XTECHAG   60001458950001220422003310030010/2022-05-21/100021345
58001020211008CDFDCF633D             000000000000000000000000022052300011105247714700100000000559784700100006000147308XTECHAG   60001473080001220523003302010010/2022-05-21/100021346
58001020211008BE8F93ABE6             000000000000000000000000022052300011120609854700100000009882434700100006000150090XTECHAG   60001500900001220523003302010010/2022-05-21/100021347
5800102021102193F624F082             000000000000000000000000022052300012100735184700100000000502814700100006000416767XTECHAG   60004167670001220523003310010010/2022-05-21/100021348
58001020211021800634CEBB             000000000000000000000000022052300012658358274700100000000713414700100006000426681XTECHAG   60004266810001220523003310010010/2022-05-21/100021349
58001020211015D86FEDC7C2             000000000000000000000000022052300012004066624700100000000221134700100006000435346XTECHAG   60004353460001220523003310010010/2022-05-21/100021350
580010202110218E70361F07             000000000000000000000000022052300012234103724700100000000225664700100006000438442XTECHAG   60004384420001220523003310010010/2022-05-21/100021351
58001020210920824DF699AE             000000000000000000000000022052300012920101164700100000000290314700100006000234766XTECHAG   60002347660001220523003310010010/2022-05-21/100021352
5800102021100882D85FBAE4             000000000000000000000000022052300014606330574700100000014987164700100006000239156XTECHAG   60002391560001220523003302010010/2022-05-21/100021353
580010202110218B479D3832             000000000000000000000000022052300011299150674700100000000458014700100006000242416XTECHAG   60002424160001220331003310030010/2022-05-21/100021354
5800102021100899A0474811             000000000000000000000000022052300011957612184700100000007059784700100006000246845XTECHAG   60002468450001220523003302010010/2022-05-21/100021355
58001020211008F0C881883F             000000000000000000000000022052300011486774434700100000013375864700100006000501381XTECHAG   60005013810001220523003302010010/2022-05-21/100021356
580010202110080446528C00             000000000000000000000000022052300013701946154700100000012610024700100006000502787XTECHAG   60005027870001220523003302010010/2022-05-21/100021357
58001020211021D1B9FCEE99             000000000000000000000000022052300012688671934700100000000297884700100006000508734XTECHAG   60005087340001220428003310030010/2022-05-21/100021358
580010202110150920AF6B41             000000000000000000000000022052300012840470064700100000000141434700100006000513959XTECHAG   60005139590001220422003310030010/2022-05-21/100021359
580010202110210927FE6340             000000000000000000000000022052300012379926624700100000000804824700100006000515145XTECHAG   60005151450001220428003310030010/2022-05-21/100021360
580010202110089F6962AF3D             000000000000000000000000022052300012384128134700100000009429564700100006000631285XTECHAG   60006312850001220523003302010010/2022-05-21/100021361
5800102021102149928B6738             000000000000000000000000022052300013044253534700100000000573884700100006000632370XTECHAG   60006323700001220523003310010010/2022-05-21/100021362
5800102021102149928B6738             000000000000000000000000022052300013044253534700100000000585234700100006000632370XTECHAG   60006323700001220428003310030010/2022-05-21/100021363
58001020211015DFB0A78826             000000000000000000000000022052300014773995594700100000000416244700100006000652797XTECHAG   60006527970001220523003310010010/2022-05-21/100021364
580010202110219F75F7459D             000000000000000000000000022052300012659761964700100000000256414700100006000477685XTECHAG   60004776850001220523003310010010/2022-05-21/100021365
58001020211015FE0E64F565             000000000000000000000000022052300013252339334700100000000533684700100006000478363XTECHAG   60004783630001220523003310010010/2022-05-21/100021366
58001020211021FBD9951518             000000000000000000000000022052300012683281954700100000000390324700100006000495748XTECHAG   60004957480001220523003310010010/2022-05-21/100021367
580010202110089A64DDBF8B             000000000000000000000000022052300013400392124700100000000362184700100006000499840XTECHAG   60004998400001220523003302010010/2022-05-21/100021368
58001020211008423F6A52CF             000000000000000000000000022052300013309923164700100000006941584700100006000533100XTECHAG   60005331000001220523003302010010/2022-05-21/100021369
58001020211015400FCC47B3             000000000000000000000000022052300014975917064700100000000399564700100006000322762XTECHAG   60003227620001220523003310010010/2022-05-21/100021370
58001020211021648C71D44E             000000000000000000000000022052300011273670544700100000000931134700100006000343913XTECHAG   60003439130001220523003310010010/2022-05-21/100021371
580010202110156846581362             000000000000000000000000022052300011172826174700100000005091864700100006000353668XTECHAG   60003536680001220523003302010010/2022-05-21/100021372
58001020211015D5D8D87B68             000000000000000000000000022052300013805970384700100000000261404700100006000381769XTECHAG   60003817690001220523003310010010/2022-05-21/100021373
5800102021100819C7E7CA8D             000000000000000000000000022052300012454519504700100000012901034700100006000382870XTECHAG   60003828700001220523003302010010/2022-05-21/100021374
580010202110081336E2918D             000000000000000000000000022052300013357310494700100000004556774700100006000383753XTECHAG   60003837530001220523003302010010/2022-05-21/100021375
58001020211015989B4833BE             000000000000000000000000022052300012725170964700100000000811094700100006000451821XTECHAG   60004518210001220422003310030010/2022-05-21/100021376
580010202110211487B9FE9B             000000000000000000000000022052300012380026314700100000000461384700100006000457331XTECHAG   60004573310001220523003310010010/2022-05-21/100021377
580010202110211487B9FE9B             000000000000000000000000022052300012380026314700100000000471144700100006000457331XTECHAG   60004573310001220428003310030010/2022-05-21/100021378
58001020211021D63C98C2C1             000000000000000000000000022052300012315401664700100000000288974700100006000460839XTECHAG   60004608390001220523003310010010/2022-05-21/100021379
58001020211021C28FCD1C8B             000000000000000000000000022052300013119384924700100000000507704700100006000462084XTECHAG   60004620840001220523003310010010/2022-05-21/100021380
58001020211021C28FCD1C8B             000000000000000000000000022052300013119384924700100000000517944700100006000462084XTECHAG   60004620840001220428003310030010/2022-05-21/100021381
58001020211008DE06C25FEC             000000000000000000000000022052300014567334844700100000000072944700100006000156730XTECHAG   60001567300001220523003302010010/2022-05-21/100021382
5800102021100822B1AB5401             000000000000000000000000022052300012245489204700100000001063434700100006000162218XTECHAG   60001622180001220523003302010010/2022-05-21/100021383
5800102021100841892D1896             000000000000000000000000022052300012248244214700100000001285464700100006000167368XTECHAG   60001673680001220523003302010010/2022-05-21/100021384
580010202110180BA2B87CEE             000000000000000000000000022052300013004181154700100000000314774700100006000167791XTECHAG   60001677910001220523003310010010/2022-05-21/100021385
580010202110088C81358C61             000000000000000000000000022052300011687950264700100000000231004700100006000172957XTECHAG   60001729570001220523003302010010/2022-05-21/100021386
58001020211008AF44E4B119             000000000000000000000000022052300012630755744700100000007082084700100006000442725XTECHAG   60004427250001220523003302010010/2022-05-21/100021387
58001020211021A46BA37ECA             000000000000000000000000022052300011952802794700100000000448754700100006000448103XTECHAG   60004481030001220523003310010010/2022-05-21/100021388
58001020211008B11BE6450E             000000000000000000000000022052300011778226694700100000017162034700100006000454294XTECHAG   60004542940001220523003302010010/2022-05-21/100021389
580010202110217E53DCC24E             000000000000000000000000022052300012244761644700100000001040554700100006000247299XTECHAG   60002472990001220523003310010010/2022-05-21/100021390
580010202110081C0DB57578             000000000000000000000000022052300011109663324700100000014221754700100006000247825XTECHAG   60002478250001220523003302010010/2022-05-21/100021391
580010202110080D567E1B3D             000000000000000000000000022052300011486776484700100000006596764700100006000248902XTECHAG   60002489020001220523003302010010/2022-05-21/100021392
58001020211015A648D7ED23             000000000000000000000000022052300014181948574700100000000170294700100006000250710XTECHAG   60002507100001220422003310030010/2022-05-21/100021393
58001020211008CA824A4152             000000000000000000000000022052300013739927334700100000008590974700100006000253183XTECHAG   60002531830001220523003302010010/2022-05-21/100021394
58001020210923C248A715BC             000000000000000000000000022052300014964431694700100000000425194700100006000253191XTECHAG   60002531910001220425003310030010/2022-05-21/100021395
58001020211008D184BCB16D             000000000000000000000000022052300011522298404700100000009640904700100006000527976XTECHAG   60005279760001220523003302010010/2022-05-21/100021396
580010202110080D7B98F023             000000000000000000000000022052300014484266914700100000000151644700100006000528298XTECHAG   60005282980001220523003302010010/2022-05-21/100021397
5800102021101567C6A3E068             000000000000000000000000022052300013036133184700100000000069224700100006000532600XTECHAG   60005326000001220422003310030010/2022-05-21/100021398
580010202110216BFDC0B6DA             000000000000000000000000022052300012905495814700100000000714654700100006000535456XTECHAG   60005354560001220428003310030010/2022-05-21/100021399
58001020211021CBDAA59212             000000000000000000000000022052300011334783344700100000000574714700100006000540085XTECHAG   60005400850001220428003310030010/2022-05-21/100021400
580010202110151AFD16EE95             000000000000000000000000022052300014237930544700100000000278244700100006000543793XTECHAG   60005437930001220422003310030010/2022-05-21/100021401
58001020211015BB7DD7EC8E             000000000000000000000000022052300011111227584700100000000638314700100006000660226XTECHAG   60006602260001220422003310030010/2022-05-21/100021402
58001020211008DC8AD72BBB             000000000000000000000000022052300013507972924700100000011759814700100006000662210XTECHAG   60006622100001220523003302010010/2022-05-21/100021403
580010202110082988475A6B             000000000000000000000000022052300012225224604700100000014248624700100006000673484XTECHAG   60006734840001220523003302010010/2022-05-21/100021404
58001020211008C04309D0DE             000000000000000000000000022052300013670345134700100000010362544700100006000558618XTECHAG   60005586180001220523003302010010/2022-05-21/100021405
58001020211008ADFC788987             000000000000000000000000022052300014972901884700100000012955284700100006000578643XTECHAG   60005786430001220523003302010010/2022-05-21/100021406
58001020211021EF62182CF2             000000000000000000000000022052300013318603164700100000000339164700100006000465199XTECHAG   60004651990001220428003310030010/2022-05-21/100021407
580010202110212D8B023DCF             000000000000000000000000022052300011446299404700100000000986634700100006000471806XTECHAG   60004718060001220523003310010010/2022-05-21/100021408
580010202110212D8B023DCF             000000000000000000000000022052300011446299404700100000001014054700100006000471806XTECHAG   60004718060001220428003310030010/2022-05-21/100021409
5800102021100879F3CE5756             000000000000000000000000022052300012525994454700100000005261954700100006000472039XTECHAG   60004720390001220523003302010010/2022-05-21/100021410
580010202110217AFB66B73D             000000000000000000000000022052300013124391984700100000000045394700100006000473647XTECHAG   60004736470001220523003310010010/2022-05-21/100021411
